:020000000F28C7
:10000800DE00030E8312A0000408A1000A08A20063
:100018005F08A30097281028830112288312A501DE
:10002800A50AA601AA207D206E280C10260803190F
:1000380071280130A60271288510851A6E28A6013C
:10004800A60AA501A50A6E2885142608031D6E2890
:10005800FF30A4002408A600023066288510051485
:100068002608031D6E28A601A60A033066288514F3
:100078002608031D6E28043066282608031946281A
:10008800851447288510051950282608031D50286F
:10009800BF30A4002408A600051A6E28A601A60AE7
:1000A80005306628851405102608031D6E28A6014C
:1000B800A60A0630662885102608031D6E28A601A4
:1000C800A60A0730A4002408A5006E28851426086F
:1000D8000319A50183120C18192825088400083073
:1000E800040203186E2800308A00A2300407820038
:1000F8006E28831210131008CF3920389000901101
:100108001011901010148316151495141515151642
:1001180095160510851005150516851699010730E1
:100128008312990408002308DF0022088A002108A6
:100138008400200E8300DE0E5E0E09002028282889
:0E01480032283B28412856285F286A280800E4
:02400E00C431BB
:00000001FF
