:020000000F28C7
:10000800DE00030E8312AB000408AC000A08AD0042
:100018005F08AE00C9281028A001A101A201A30110
:10002800A401A501A601A701A801A901AA018301AC
:100038001D288312B301B30AB201EE20AD209E2819
:100048000C10280829040319A1280130A80200303F
:10005800031CA903A902A1288510851A9E2801302E
:10006800AF000030B000DD208312B301B30A9E2830
:10007800851428082904031D9E28C830AF000030C5
:10008800B000DD20023094288510051428082904C2
:10009800031D73280130AF000030B000DD200330AD
:1000A8008312B1003108B300732885142808290485
:1000B800031D9E280430952828082904031966285A
:1000C8008514672885100519722828082904031D36
:1000D80072282C30AF000130B000DD208312051AE1
:1000E8009E280130AF000030B000DD200530942894
:1000F8008514051028082904031D9E280130AF0027
:100108000030B000DD200630942885102808290426
:10011800031D9E280130AF000030B000DD200730FD
:100128008312B1003108B3009E28851428082904D9
:100138000319B30183120C182428330884000830EB
:10014800040203189E2800308A00E6300407820063
:100158009E2883168101831210131008CF39103896
:10016800900090111011901010148316151095100E
:1001780015151516951605108510051505168516FD
:10018800990107308312990408002E08DF002D0812
:100198008A002C0884002B0E8300DE0E5E0E0900F8
:1001A80000308A000408840A8207003404341034BA
:1001B800203483120C103008A9002F08A8008E01E3
:1001C8008F01080030283C284828592860287C28B6
:0601D800892899280800A7
:02400E00C431BB
:00000001FF
