:020000000F28C7
:10000800DE00030E8312A0000408A1000A08A20063
:100018005F08A30056291028AD01AE01AF01B00159
:10002800B101B201B301B401B50183011B288312E8
:10003800A901A90AAA01AB01AC0172213A219528AC
:1000480085100330840061212A05031995280230A0
:10005800AB000030AC00A901A90A952885142B082B
:100068002C04031D9528C830AB000030AC000230CA
:100078008C28851005142B082C04031D6A280230CF
:10008800AB000030AC000330A8002808A9006A289B
:1000980085142B082C04031D952804308C282B0864
:1000A8002C040319592885145A2885100130840016
:1000B8006121A8002A08280503196A282B082C049E
:1000C800031D6A282C30AB000130AC0002308400DC
:1000D80061212A05031995280230AB000030AC00D5
:1000E80005308C28851405102B082C04031D952831
:1000F8000230AB000030AC0006308C2885102B088D
:100108002C04031D95280230AB000030AC000730EA
:10011800A8002808A900952885142B082C04031981
:10012800A90183120C1CA3280C102B082C040319FA
:10013800A3280130AB020030031CAC03AC02B4208E
:100148008312A8002808AA0029088400083004029D
:100158000318952801308A006A3004078200952820
:100168008312A701A701033027020318F2282708E2
:10017800013E840061210505031DCE282708A4003F
:1001880024072D3E8400013083138007840A031856
:10019800800AEA282708A40024072D3E8400831338
:1001A8000008A500840A0008A600250826040319EB
:1001B800EA282708A40024072D3E84000130800285
:1001C800840F0030031C8003800284030130A400E4
:1001D8002408A70703302702031CBB280130B307F4
:1001E8000318B40A0030B407EA3034026130031946
:1001F8003302031C3829B301B401A70103302702D5
:10020800031838292708A40024072D3E84008313E7
:100218000008A500840A0008A600C3302602513051
:1002280003192502031C20292708013E84006121A7
:10023800A4002408B50428292708013E8400612168
:10024800FF3AA4002408B5052708A40024072D3E7A
:1002580084008001840A80010130A4002408A707D3
:1002680003302702031C062935080800831681017C
:10027800831210131008CF39103890009011101104
:10028800901010148316151095101515151695163F
:100298000510851005150516851699010730831276
:1002A800990408002308DF0022088A002108840036
:1002B800200E8300DE0E5E0E090001308A0004085D
:1002C800840A820700340434103420342428322865
:0E02D8003D284C2853287628822890280800BC
:02400E00C431BB
:00000001FF
